{
  "_format": "hh-sol-artifact-1",
  "contractName": "TodoList",
  "sourceName": "contracts/TodoList.sol",
  "abi": [
    {
      "inputs": [
        {
          "internalType": "address",
          "name": "owner",
          "type": "address"
        }
      ],
      "name": "OwnableInvalidOwner",
      "type": "error"
    },
    {
      "inputs": [
        {
          "internalType": "address",
          "name": "account",
          "type": "address"
        }
      ],
      "name": "OwnableUnauthorizedAccount",
      "type": "error"
    },
    {
      "inputs": [],
      "name": "ReentrancyGuardReentrantCall",
      "type": "error"
    },
    {
      "anonymous": false,
      "inputs": [
        {
          "indexed": true,
          "internalType": "address",
          "name": "previousOwner",
          "type": "address"
        },
        {
          "indexed": true,
          "internalType": "address",
          "name": "newOwner",
          "type": "address"
        }
      ],
      "name": "OwnershipTransferred",
      "type": "event"
    },
    {
      "anonymous": false,
      "inputs": [
        {
          "indexed": true,
          "internalType": "bytes32",
          "name": "id",
          "type": "bytes32"
        },
        {
          "indexed": false,
          "internalType": "uint256",
          "name": "timestamp",
          "type": "uint256"
        }
      ],
      "name": "TaskCompleted",
      "type": "event"
    },
    {
      "anonymous": false,
      "inputs": [
        {
          "indexed": true,
          "internalType": "bytes32",
          "name": "id",
          "type": "bytes32"
        },
        {
          "indexed": true,
          "internalType": "address",
          "name": "owner",
          "type": "address"
        },
        {
          "indexed": false,
          "internalType": "uint256",
          "name": "timestamp",
          "type": "uint256"
        }
      ],
      "name": "TaskCreated",
      "type": "event"
    },
    {
      "anonymous": false,
      "inputs": [
        {
          "indexed": true,
          "internalType": "bytes32",
          "name": "id",
          "type": "bytes32"
        },
        {
          "indexed": false,
          "internalType": "uint256",
          "name": "timestamp",
          "type": "uint256"
        }
      ],
      "name": "TaskDeleted",
      "type": "event"
    },
    {
      "inputs": [
        {
          "internalType": "bytes32",
          "name": "_taskId",
          "type": "bytes32"
        }
      ],
      "name": "completeTask",
      "outputs": [],
      "stateMutability": "nonpayable",
      "type": "function"
    },
    {
      "inputs": [
        {
          "internalType": "bytes32",
          "name": "_taskId",
          "type": "bytes32"
        }
      ],
      "name": "createTask",
      "outputs": [],
      "stateMutability": "nonpayable",
      "type": "function"
    },
    {
      "inputs": [
        {
          "internalType": "bytes32",
          "name": "_taskId",
          "type": "bytes32"
        }
      ],
      "name": "deleteTask",
      "outputs": [],
      "stateMutability": "nonpayable",
      "type": "function"
    },
    {
      "inputs": [
        {
          "internalType": "address",
          "name": "_user",
          "type": "address"
        },
        {
          "internalType": "bool",
          "name": "includeCompleted",
          "type": "bool"
        },
        {
          "internalType": "bool",
          "name": "includeDeleted",
          "type": "bool"
        }
      ],
      "name": "getFilteredTasks",
      "outputs": [
        {
          "internalType": "bytes32[]",
          "name": "",
          "type": "bytes32[]"
        }
      ],
      "stateMutability": "view",
      "type": "function"
    },
    {
      "inputs": [
        {
          "internalType": "bytes32",
          "name": "_taskId",
          "type": "bytes32"
        }
      ],
      "name": "getTask",
      "outputs": [
        {
          "components": [
            {
              "internalType": "bytes32",
              "name": "id",
              "type": "bytes32"
            },
            {
              "internalType": "address",
              "name": "owner",
              "type": "address"
            },
            {
              "internalType": "bool",
              "name": "isCompleted",
              "type": "bool"
            },
            {
              "internalType": "uint256",
              "name": "createdAt",
              "type": "uint256"
            },
            {
              "internalType": "uint256",
              "name": "completedAt",
              "type": "uint256"
            },
            {
              "internalType": "bool",
              "name": "isDeleted",
              "type": "bool"
            }
          ],
          "internalType": "struct TodoList.Task",
          "name": "",
          "type": "tuple"
        }
      ],
      "stateMutability": "view",
      "type": "function"
    },
    {
      "inputs": [],
      "name": "owner",
      "outputs": [
        {
          "internalType": "address",
          "name": "",
          "type": "address"
        }
      ],
      "stateMutability": "view",
      "type": "function"
    },
    {
      "inputs": [],
      "name": "renounceOwnership",
      "outputs": [],
      "stateMutability": "nonpayable",
      "type": "function"
    },
    {
      "inputs": [
        {
          "internalType": "bytes32",
          "name": "",
          "type": "bytes32"
        }
      ],
      "name": "tasks",
      "outputs": [
        {
          "internalType": "bytes32",
          "name": "id",
          "type": "bytes32"
        },
        {
          "internalType": "address",
          "name": "owner",
          "type": "address"
        },
        {
          "internalType": "bool",
          "name": "isCompleted",
          "type": "bool"
        },
        {
          "internalType": "uint256",
          "name": "createdAt",
          "type": "uint256"
        },
        {
          "internalType": "uint256",
          "name": "completedAt",
          "type": "uint256"
        },
        {
          "internalType": "bool",
          "name": "isDeleted",
          "type": "bool"
        }
      ],
      "stateMutability": "view",
      "type": "function"
    },
    {
      "inputs": [
        {
          "internalType": "address",
          "name": "newOwner",
          "type": "address"
        }
      ],
      "name": "transferOwnership",
      "outputs": [],
      "stateMutability": "nonpayable",
      "type": "function"
    },
    {
      "inputs": [
        {
          "internalType": "address",
          "name": "",
          "type": "address"
        },
        {
          "internalType": "uint256",
          "name": "",
          "type": "uint256"
        }
      ],
      "name": "userTasks",
      "outputs": [
        {
          "internalType": "bytes32",
          "name": "",
          "type": "bytes32"
        }
      ],
      "stateMutability": "view",
      "type": "function"
    }
  ],
  "bytecode": "0x6080604052348015600f57600080fd5b503380603557604051631e4fbdf760e01b81526000600482015260240160405180910390fd5b603c816045565b50600180556095565b600080546001600160a01b038381166001600160a01b0319831681178455604051919092169283917f8be0079c531659141344cd1fd0a4f28419497f9722a3daafe3b4186f6b6457e09190a35050565b610d40806100a46000396000f3fe608060405234801561001057600080fd5b506004361061009e5760003560e01c80638da5cb5b116100665780638da5cb5b1461020c578063b293e81c14610227578063e579f5001461023a578063e64f15a2146102cb578063f2fde38b146102de57600080fd5b806315a29035146100a357806355c26191146101ae57806366873a55146101ce578063715018a6146101ef5780637c0390f7146101f9575b600080fd5b6101516100b1366004610ba0565b6040805160c081018252600080825260208201819052918101829052606081018290526080810182905260a081019190915250600090815260026020818152604092839020835160c0810185528154815260018201546001600160a01b0381169382019390935260ff600160a01b90930483161515948101949094529182015460608401526003820154608084015260049091015416151560a082015290565b6040516101a59190815181526020808301516001600160a01b031690820152604080830151151590820152606080830151908201526080808301519082015260a09182015115159181019190915260c00190565b60405180910390f35b6101c16101bc366004610be5565b6102f1565b6040516101a59190610c28565b6101e16101dc366004610c6b565b610599565b6040519081526020016101a5565b6101f76105ca565b005b6101f7610207366004610ba0565b6105de565b6000546040516001600160a01b0390911681526020016101a5565b6101f7610235366004610ba0565b6107d8565b61028e610248366004610ba0565b60026020819052600091825260409091208054600182015492820154600383015460049093015491936001600160a01b03811693600160a01b90910460ff908116931686565b604080519687526001600160a01b0390951660208701529215159385019390935260608401526080830191909152151560a082015260c0016101a5565b6101f76102d9366004610ba0565b61093e565b6101f76102ec366004610c95565b610abe565b6001600160a01b038316600090815260036020908152604080832080548251818502810185019093528083526060949383018282801561035057602002820191906000526020600020905b81548152602001906001019080831161033c575b505050505090506000805b82518110156104325760006002600085848151811061037c5761037c610cb7565b6020908102919091018101518252818101929092526040908101600020815160c0810183528154815260018201546001600160a01b03811694820194909452600160a01b90930460ff90811615159284019290925260028101546060840152600381015460808401526004015416151560a08201529050858061040157508060a00151155b80156104165750868061041657508060400151155b15610429578261042581610ccd565b9350505b5060010161035b565b5060008167ffffffffffffffff81111561044e5761044e610cf4565b604051908082528060200260200182016040528015610477578160200160208202803683370190505b5090506000805b845181101561058c5760006002600087848151811061049f5761049f610cb7565b6020908102919091018101518252818101929092526040908101600020815160c0810183528154815260018201546001600160a01b03811694820194909452600160a01b90930460ff90811615159284019290925260028101546060840152600381015460808401526004015416151560a08201529050878061052457508060a00151155b80156105395750888061053957508060400151155b156105835785828151811061055057610550610cb7565b602002602001015184848061056490610ccd565b95508151811061057657610576610cb7565b6020026020010181815250505b5060010161047e565b5090979650505050505050565b600360205281600052604060002081815481106105b557600080fd5b90600052602060002001600091509150505481565b6105d2610af9565b6105dc6000610b26565b565b60008181526002602052604090206001015481906001600160a01b03166106425760405162461bcd60e51b815260206004820152601360248201527215185cdac8191bd95cc81b9bdd08195e1a5cdd606a1b60448201526064015b60405180910390fd5b60008281526002602052604090206001015482906001600160a01b0316331461069e5760405162461bcd60e51b815260206004820152600e60248201526d2737ba103a30b9b59037bbb732b960911b6044820152606401610639565b600083815260026020526040902060040154839060ff16156106f45760405162461bcd60e51b815260206004820152600f60248201526e15185cdac81a5cc819195b195d1959608a1b6044820152606401610639565b6000848152600260205260409020600101548490600160a01b900460ff16156107585760405162461bcd60e51b815260206004820152601660248201527515185cdac8185b1c9958591e4818dbdb5c1b195d195960521b6044820152606401610639565b610760610b76565b6000858152600260205260409081902060018101805460ff60a01b1916600160a01b179055426003909101819055905186917f425461b244c16ff50abad00f390b37ec670910e5c1f71d0c3f4cfd35c0cadc9b916107c091815260200190565b60405180910390a26107d160018055565b5050505050565b6107e0610b76565b6000818152600260205260409020600101546001600160a01b03161561083e5760405162461bcd60e51b81526020600482015260136024820152725461736b20616c72656164792065786973747360681b6044820152606401610639565b6040805160c081018252828152336020808301828152600084860181815242606087018181526080880184815260a089018581528b865260028089528b87208b51815597516001808a01805498511515600160a01b026001600160a81b03199099166001600160a01b03909316929092179790971790559251928701929092555160038087019190915590516004909501805495151560ff1990961695909517909455858352928452868220805491820181558252908390200186905593519384529192909184917f5fb74283f874d0f894d0de9c856a2a842137dc2c21c621e080065c7b797c0095910160405180910390a35061093b60018055565b50565b60008181526002602052604090206001015481906001600160a01b031661099d5760405162461bcd60e51b815260206004820152601360248201527215185cdac8191bd95cc81b9bdd08195e1a5cdd606a1b6044820152606401610639565b60008281526002602052604090206001015482906001600160a01b031633146109f95760405162461bcd60e51b815260206004820152600e60248201526d2737ba103a30b9b59037bbb732b960911b6044820152606401610639565b600083815260026020526040902060040154839060ff1615610a4f5760405162461bcd60e51b815260206004820152600f60248201526e15185cdac81a5cc819195b195d1959608a1b6044820152606401610639565b610a57610b76565b60008481526002602052604090819020600401805460ff191660011790555184907fdfa114c373914aee203c1c48ba1e774124da4d7125dbaf2919793b81e430cc5390610aa79042815260200190565b60405180910390a2610ab860018055565b50505050565b610ac6610af9565b6001600160a01b038116610af057604051631e4fbdf760e01b815260006004820152602401610639565b61093b81610b26565b6000546001600160a01b031633146105dc5760405163118cdaa760e01b8152336004820152602401610639565b600080546001600160a01b038381166001600160a01b0319831681178455604051919092169283917f8be0079c531659141344cd1fd0a4f28419497f9722a3daafe3b4186f6b6457e09190a35050565b600260015403610b9957604051633ee5aeb560e01b815260040160405180910390fd5b6002600155565b600060208284031215610bb257600080fd5b5035919050565b80356001600160a01b0381168114610bd057600080fd5b919050565b80358015158114610bd057600080fd5b600080600060608486031215610bfa57600080fd5b610c0384610bb9565b9250610c1160208501610bd5565b9150610c1f60408501610bd5565b90509250925092565b602080825282518282018190526000918401906040840190835b81811015610c60578351835260209384019390920191600101610c42565b509095945050505050565b60008060408385031215610c7e57600080fd5b610c8783610bb9565b946020939093013593505050565b600060208284031215610ca757600080fd5b610cb082610bb9565b9392505050565b634e487b7160e01b600052603260045260246000fd5b600060018201610ced57634e487b7160e01b600052601160045260246000fd5b5060010190565b634e487b7160e01b600052604160045260246000fdfea26469706673582212202d0f994cbf9e82cd0e8f37fdf8886861fda60af8005dedd8207055af7c88938164736f6c634300081c0033",
  "linkReferences": {},
  "deployedLinkReferences": {}
}